{
  "contractName": "CouplePromise",
  "abi": [
    {
      "inputs": [],
      "payable": false,
      "stateMutability": "nonpayable",
      "type": "constructor"
    },
    {
      "anonymous": false,
      "inputs": [
        {
          "indexed": false,
          "name": "_id",
          "type": "uint256"
        },
        {
          "indexed": false,
          "name": "_firstPerson",
          "type": "address"
        },
        {
          "indexed": false,
          "name": "_secondPerson",
          "type": "address"
        },
        {
          "indexed": false,
          "name": "etherMount",
          "type": "uint256"
        }
      ],
      "name": "showPromise",
      "type": "event"
    },
    {
      "constant": true,
      "inputs": [],
      "name": "countPromise",
      "outputs": [
        {
          "name": "",
          "type": "uint256"
        }
      ],
      "payable": false,
      "stateMutability": "view",
      "type": "function"
    },
    {
      "constant": false,
      "inputs": [
        {
          "name": "_opponent",
          "type": "address"
        }
      ],
      "name": "createPromise",
      "outputs": [],
      "payable": false,
      "stateMutability": "nonpayable",
      "type": "function"
    },
    {
      "constant": true,
      "inputs": [
        {
          "name": "_id",
          "type": "uint256"
        }
      ],
      "name": "getPromise",
      "outputs": [
        {
          "name": "",
          "type": "uint256"
        },
        {
          "name": "",
          "type": "address"
        },
        {
          "name": "",
          "type": "address"
        },
        {
          "name": "",
          "type": "uint256"
        },
        {
          "name": "",
          "type": "uint256"
        },
        {
          "name": "",
          "type": "bool"
        },
        {
          "name": "",
          "type": "bool"
        },
        {
          "name": "",
          "type": "uint256"
        }
      ],
      "payable": false,
      "stateMutability": "view",
      "type": "function"
    },
    {
      "constant": false,
      "inputs": [
        {
          "name": "_id",
          "type": "uint256"
        }
      ],
      "name": "betPromise",
      "outputs": [],
      "payable": true,
      "stateMutability": "payable",
      "type": "function"
    },
    {
      "constant": false,
      "inputs": [
        {
          "name": "_id",
          "type": "uint256"
        }
      ],
      "name": "achivedPromise",
      "outputs": [],
      "payable": false,
      "stateMutability": "nonpayable",
      "type": "function"
    },
    {
      "constant": false,
      "inputs": [
        {
          "name": "_id",
          "type": "uint256"
        }
      ],
      "name": "checkPromise",
      "outputs": [],
      "payable": false,
      "stateMutability": "nonpayable",
      "type": "function"
    },
    {
      "constant": false,
      "inputs": [
        {
          "name": "_id",
          "type": "uint256"
        }
      ],
      "name": "withdrawPromise",
      "outputs": [],
      "payable": true,
      "stateMutability": "payable",
      "type": "function"
    }
  ],
  "bytecode": "0x6060604052341561000f57600080fd5b60008081905550610c16806100256000396000f300606060405260043610610083576000357c0100000000000000000000000000000000000000000000000000000000900463ffffffff168063150a60b01461008857806378761efc146100b15780638d9b8277146100d4578063b9355b01146100ec578063d7453a6814610125578063f720859314610148578063fda4f47314610210575b600080fd5b341561009357600080fd5b61009b610228565b6040518082815260200191505060405180910390f35b34156100bc57600080fd5b6100d26004808035906020019091905050610231565b005b6100ea6004808035906020019091905050610470565b005b34156100f757600080fd5b610123600480803573ffffffffffffffffffffffffffffffffffffffff169060200190919050506106d8565b005b341561013057600080fd5b6101466004808035906020019091905050610797565b005b341561015357600080fd5b61016960048080359060200190919050506108f4565b604051808981526020018873ffffffffffffffffffffffffffffffffffffffff1673ffffffffffffffffffffffffffffffffffffffff1681526020018773ffffffffffffffffffffffffffffffffffffffff1673ffffffffffffffffffffffffffffffffffffffff16815260200186815260200185815260200184151515158152602001831515151581526020018281526020019850505050505050505060405180910390f35b61022660048080359060200190919050506109b1565b005b60008054905090565b60008160006001600083815260200190815260200160002090503373ffffffffffffffffffffffffffffffffffffffff168160000160009054906101000a900473ffffffffffffffffffffffffffffffffffffffff1673ffffffffffffffffffffffffffffffffffffffff1614806102f857503373ffffffffffffffffffffffffffffffffffffffff168160010160009054906101000a900473ffffffffffffffffffffffffffffffffffffffff1673ffffffffffffffffffffffffffffffffffffffff16145b151561030357600080fd5b60016000858152602001908152602001600020925042836006015410151561032a57600080fd5b600115158360040160009054906101000a900460ff1615151480156103645750600115158360040160019054906101000a900460ff161515145b1561036e5761044d565b600115158360040160009054906101000a900460ff1615151480156103a85750600015158360040160019054906101000a900460ff161515145b156103d257826003015483600201600082825401925050819055506000836003018190555061044c565b600015158360040160009054906101000a900460ff16151514801561040c5750600115158360040160019054906101000a900460ff161515145b1561043657826002015483600301600082825401925050819055506000836002018190555061044b565b60008360020181905550600083600301819055505b5b5b60018360070160006101000a81548160ff02191690831515021790555050505050565b60008060008360006001600083815260200190815260200160002090503373ffffffffffffffffffffffffffffffffffffffff168160000160009054906101000a900473ffffffffffffffffffffffffffffffffffffffff1673ffffffffffffffffffffffffffffffffffffffff16148061053a57503373ffffffffffffffffffffffffffffffffffffffff168160010160009054906101000a900473ffffffffffffffffffffffffffffffffffffffff1673ffffffffffffffffffffffffffffffffffffffff16145b151561054557600080fd5b6001600087815260200190815260200160002094508460000160009054906101000a900473ffffffffffffffffffffffffffffffffffffffff1673ffffffffffffffffffffffffffffffffffffffff163373ffffffffffffffffffffffffffffffffffffffff161480156105be57506000856002015414155b156106145784600201549350600085600201819055503373ffffffffffffffffffffffffffffffffffffffff168460405160006040518083038185876187965a03f192505050151561060f57600080fd5b6106d0565b8460010160009054906101000a900473ffffffffffffffffffffffffffffffffffffffff1673ffffffffffffffffffffffffffffffffffffffff163373ffffffffffffffffffffffffffffffffffffffff1614801561067857506000856003015414155b156106ce5784600301549250600085600301819055503373ffffffffffffffffffffffffffffffffffffffff168360405160006040518083038185876187965a03f19250505015156106c957600080fd5b6106cf565b5b5b505050505050565b600060016000805481526020019081526020016000209050338160000160006101000a81548173ffffffffffffffffffffffffffffffffffffffff021916908373ffffffffffffffffffffffffffffffffffffffff160217905550818160010160006101000a81548173ffffffffffffffffffffffffffffffffffffffff021916908373ffffffffffffffffffffffffffffffffffffffff160217905550603c4201816006018190555060008081548092919060010191905055505050565b60008160006001600083815260200190815260200160002090503373ffffffffffffffffffffffffffffffffffffffff168160000160009054906101000a900473ffffffffffffffffffffffffffffffffffffffff1673ffffffffffffffffffffffffffffffffffffffff16148061085e57503373ffffffffffffffffffffffffffffffffffffffff168160010160009054906101000a900473ffffffffffffffffffffffffffffffffffffffff1673ffffffffffffffffffffffffffffffffffffffff16145b151561086957600080fd5b6001600085815260200190815260200160002092503373ffffffffffffffffffffffffffffffffffffffff168360000160009054906101000a900473ffffffffffffffffffffffffffffffffffffffff1673ffffffffffffffffffffffffffffffffffffffff1614156108e4576108df84610b0e565b6108ee565b6108ed84610b46565b5b50505050565b6000806000806000806000806000600160008b81526020019081526020016000209050898160000160009054906101000a900473ffffffffffffffffffffffffffffffffffffffff168260010160009054906101000a900473ffffffffffffffffffffffffffffffffffffffff16836002015484600301548560040160009054906101000a900460ff168660040160019054906101000a900460ff1687600501549850985098509850985098509850985050919395975091939597565b60008160006001600083815260200190815260200160002090503373ffffffffffffffffffffffffffffffffffffffff168160000160009054906101000a900473ffffffffffffffffffffffffffffffffffffffff1673ffffffffffffffffffffffffffffffffffffffff161480610a7857503373ffffffffffffffffffffffffffffffffffffffff168160010160009054906101000a900473ffffffffffffffffffffffffffffffffffffffff1673ffffffffffffffffffffffffffffffffffffffff16145b1515610a8357600080fd5b6001600085815260200190815260200160002092503373ffffffffffffffffffffffffffffffffffffffff168360000160009054906101000a900473ffffffffffffffffffffffffffffffffffffffff1673ffffffffffffffffffffffffffffffffffffffff161415610afe57610af984610b7e565b610b08565b610b0784610bb4565b5b50505050565b600060016000838152602001908152602001600020905060018160040160006101000a81548160ff0219169083151502179055505050565b600060016000838152602001908152602001600020905060018160040160016101000a81548160ff0219169083151502179055505050565b60006001600083815260200190815260200160002090503481600201819055503481600501600082825401925050819055505050565b600060016000838152602001908152602001600020905034816003018190555034816005016000828254019250508190555050505600a165627a7a7230582058ff2f93f0603e1294bd52098a0b3b8a6f840626b80ba36f06c7f863e037e9a50029",
  "source": "pragma solidity ^0.4.17;\ncontract CouplePromise {\n    // 2人とも成功 => お金が返る\n    // 1人失敗 => もう一人にお金が渡る\n    // 2人とも失敗　=> プールされる\n    struct Promise {\n        address firstPerson;\n        address secondPerson;\n        uint firstPersonAmount;\n        uint secondPersonAmount;\n        bool firstPersonAchieved;\n        bool secondPersonAchieved;\n        uint etherMount;\n        uint deadline;\n        bool checked;\n    }\n\n    uint promiseCount;\n    // uint constant coupleNum = 2;\n    function CouplePromise() public {\n        promiseCount = 0;\n    }\n\n    event showPromise(uint _id, address _firstPerson, address _secondPerson, uint etherMount);\n    mapping(uint => Promise) promises;\n\n    modifier onlyApplicableUser(uint _id) {\n        var promise = promises[_id];\n        require(promise.firstPerson == msg.sender || promise.secondPerson == msg.sender);\n        _;\n    }\n\n    function countPromise() public view returns(uint){\n        return promiseCount;\n    }\n\n    function createPromise(address _opponent) public{\n        Promise storage pro = promises[promiseCount];\n        pro.firstPerson = msg.sender;\n        pro.secondPerson = _opponent;\n        pro.deadline = now + 1 minutes;\n        promiseCount++;\n    }\n\n    function getPromise(uint _id) public view returns(uint, address, address, uint, uint, bool, bool, uint){\n        var promise = promises[_id];\n        return(_id, promise.firstPerson, promise.secondPerson, promise.firstPersonAmount, promise.secondPersonAmount, promise.firstPersonAchieved, promise.secondPersonAchieved, promise.etherMount);\n    }\n\n    function firstPersonBet(uint _id) private {\n        var promise = promises[_id];\n        promise.firstPersonAmount = msg.value;\n        promise.etherMount += msg.value;\n\n    }\n\n    function secondPersonBet(uint _id) private {\n        var promise = promises[_id];\n        promise.secondPersonAmount = msg.value;\n        promise.etherMount += msg.value;\n    }\n\n    function betPromise(uint _id) onlyApplicableUser(_id) public payable{\n        var promise = promises[_id];\n        if (promise.firstPerson == msg.sender){\n            firstPersonBet(_id);\n        } else {\n            secondPersonBet(_id);\n        }\n    }\n\n    function firstPersonAchived(uint _id) private {\n        var promise = promises[_id];\n        promise.firstPersonAchieved = true;\n    }\n\n    function secondPersonAchieved(uint _id) private {\n        var promise = promises[_id];\n        promise.secondPersonAchieved = true;\n    }\n\n    function achivedPromise(uint _id) public onlyApplicableUser(_id) {\n        var promise = promises[_id];\n        if (promise.firstPerson == msg.sender){\n            firstPersonAchived(_id);\n        } else {\n            secondPersonAchieved(_id);\n        }\n    }\n\n    function checkPromise(uint _id) public onlyApplicableUser(_id) {\n        var promise = promises[_id];\n        require(promise.deadline < now);\n        if(promise.firstPersonAchieved == true && promise.secondPersonAchieved == true) {\n\n        }else if (promise.firstPersonAchieved == true && promise.secondPersonAchieved == false) {\n            promise.firstPersonAmount += promise.secondPersonAmount;\n            promise.secondPersonAmount = 0;\n        }else if (promise.firstPersonAchieved == false && promise.secondPersonAchieved == true) {\n            promise.secondPersonAmount += promise.firstPersonAmount;\n            promise.firstPersonAmount = 0;\n        } else {\n            promise.firstPersonAmount = 0;\n            promise.secondPersonAmount = 0;\n        }\n        promise.checked = true;\n    }\n\n    function withdrawPromise(uint _id) public onlyApplicableUser(_id) payable {\n        var promise = promises[_id];\n        if ( (msg.sender == promise.firstPerson) && !(promise.firstPersonAmount == 0) ) {\n            uint firstAmount = promise.firstPersonAmount;\n            promise.firstPersonAmount = 0;\n            if( !(msg.sender.call.value(firstAmount)())) { revert(); }\n        } else if ( (msg.sender == promise.secondPerson) && !(promise.secondPersonAmount == 0) ){\n            uint secondAmount = promise.secondPersonAmount;\n            promise.secondPersonAmount = 0;\n            if(!(msg.sender.call.value(secondAmount)())) { revert(); }\n        } else {\n        }\n    }\n    /* function retunSender() public view returns(address){\n      return msg.sender;\n    }\n\n    function sendValue(uint _id) public payable returns(uint) {\n    var promise = promises[_id];\n      promise.etherMount+=msg.value;\n    } */\n}\n",
  "sourcePath": "/Users/Oyana/workspace/project/playground/couplePromise/contracts/CouplePromise.sol",
  "compiler": {
    "name": "solc",
    "version": "0.4.19+commit.c4cbbb05.Emscripten.clang"
  },
  "schemaVersion": "2.0.0",
  "updatedAt": "2018-03-31T06:21:55.891Z"
}